:020000020000FC
:100400000F931F931091440113951C3349F40091ED
:10041000430103950C3309F400E00093430110E01D
:10042000109344011F910F9108950F931F93009112
:100430004701003081F01091460113951C3349F4B7
:100440000091450103950C3309F400E00093450148
:1004500010E0109346011F910F9108950F931F9381
:100460000091470111E00127009347011F910F916F
:1004700008950F931F9300914701003029F410E075
:1004800010934501109346011F910F9108950F930A
:100490001F9309D01F910F9108950F931F930CD0B4
:1004A0001F910F910895009148010395043008F0C1
:1004B00000E000934801089500914801003039F0B0
:1004C0000130A1F0023009F1033071F1089500917B
:1004D00044011AE07ED013951A3008F010E07AE05B
:1004E000079F002D010F00934401089500914401DE
:1004F0001AE06FD00395063008F000E07AE0079F1D
:10050000002D010F009344010895009143011AE06A
:1005100060D013951A3008F010E07AE0079F002DA4
:10052000010F009343010895009143011AE051D057
:100530000395063008F000E07AE0079F002D010FD8
:10054000009343010895223091F0233009F455C0FF
:10055000009144011AE00E94E902712F802F00915E
:1005600043011AE00E94E902912FA02F0EC00091D2
:1005700046011AE00E94E902712F802F0091450187
:100580001AE00E94E902912FA02F072F1BD015B16E
:10059000107F186015B928D0082F14D015B1107F1E
:1005A000146015B921D0092F0DD015B1107F12603C
:1005B00015B91AD00A2F06D015B1107F116015B9E0
:1005C00013D00895000F000F1BB1137C102B1BB923
:1005D00008953F933327011718F0011B3395FBCF84
:1005E000102F032F3F9108958F939F9393E188E8F5
:1005F0000197F1F79F918F910895009144011AE0BE
:100600000E94E902712F802F009143011AE00E949D
:10061000E902912FA02F00914A010395063908F0B5
:1006200000E000934A010A3088F000914801003050
:1006300011F47AE00BC0013011F48AE007C00230F7
:1006400011F49AE003C0033009F4AAE005E005BD07
:10065000072F0A3031F0B6DF15B1107F186015B9D9
:1006600003C015B1177F15B9BFDF082F0A3031F06D
:10067000A9DF15B1107F146015B903C015B11B7F38
:1006800015B9B2DF092F0A3031F09CDF15B1107FA8
:10069000126015B903C015B11D7F15B9A5DF0A2F6A
:1006A0000A3031F08FDF15B1107F116015B903C02A
:1006B00015B11E7F15B998DF089500E00093C500BD
:1006C00007E60093C40008E20093C10006E000932F
:1006D000C2000F931F93EF93FF930091400110E42A
:1006E0000395011708F000E000934001F1E0E0E01D
:1006F000E00FF11D308310914201103031F411E010
:100700001093420118E21093C100FF91EF911F91E5
:100710000F910895EF93FF933591332311F0D9DFB3
:10072000FBCFFF91EF9108950F931F933F935F933A
:100730006F937F930091410110914001011779F06F
:1007400010E40395011708F000E000934101F1E087
:10075000E0E0E00FF11D30813093C60006C008E0F4
:100760000093C10000E0009342017F916F915F917F
:100770003F911F910F9118950F931F934F93052F42
:1007800060D0602F712F605D362FA3DF705D372F33
:10079000A0DF4F911F910F910895E0E5F0E0BADFDF
:1007A00050914301E9DFEEE2F1E0B4DF5091440102
:1007B000E3DF43C000914701003069F0EAE5F0E073
:1007C000A9DF50914501D8DFEEE2F1E0A3DF5091BF
:1007D0004601D2DF32C00091450110914601012B44
:1007E00021F4EAE7F0E096DF28C0E8E6F0E092DFE7
:1007F00050914501C1DFEEE2F1E08CDF50914601FE
:10080000BBDF1BC000914801003039F0013049F0D6
:10081000023059F0033069F010C0E8E8F0E07ADF08
:100820000CC0E2EBF0E076DF08C0ECEDF0E072DF48
:1008300004C0E6E0F1E06EDF00C0E0E3F1E06ADF73
:10084000089511270A3018F00A501395FBCF0F9323
:06085000012F1F91089525
:040000000C949B00C1
:04000C000C94090146
:040014000C94DE006A
:04002C000C9421010E
:10004C000C9494035B4D4F444F20315D20005B4D6D
:10005C004F444F20325D2052554E20005B4D4F4493
:10006C004F20325D2053544F5050454420005B4D7F
:10007C004F444F20325D205A45524F005B4D4F4448
:10008C004F20335D20416A757374616E646F20611B
:10009C0020756E696461646520646F732073656795
:1000AC00756E646F73005B4D4F444F20335D204180
:1000BC006A757374616E646F20612064657A656E15
:1000CC006120646F7320736567756E646F732000B5
:1000DC005B4D4F444F20335D20416A757374616EE4
:1000EC00646F206120756E696461646520646F7350
:1000FC00206D696E75746F7320005B4D4F444F20FB
:10010C00335D20416A757374616E646F2061206485
:10011C00657A656E6120646F73206D696E75746F9E
:10012C0073003A005C725C6E200000E000934301A7
:10013C00009344010093450100934601009347014D
:10014C00009348010FE104B90AB10F730AB90BB15E
:10015C00006C0BB904B10F7D04B905B1006205B98F
:10016C0000EC00936D0000E200936B0005E000933F
:10017C00680002E000936F0004EF0093890004E232
:10018C000093880000E0009380000CE00093810055
:10019C0000E00093C50007E60093C40008E200935A
:1001AC00C10006E00093C20021E07894C6D1FECFD6
:1001BC000F931F934F930FB70F9319B116FD0DC0EB
:1001CC0045E009B106FD09C04A95D9F7223011F472
:1001DC004AD103C0233009F45AD119B117FD0DC00F
:1001EC0045E009B107FD09C04A95D9F7223011F451
:1001FC002FD103C0233009F444D10F910FBF4F917D
:10020C001F910F9118950F931F934F930FB70F9347
:10021C0013B115FD0AC045E003B105FD06C04A95B2
:10022C00D9F72395243009F421E00F910FBF4F919A
:10023C001F910F9118950F931F934F930FB70F9317
:10024C00233009F0D7D000914701013009F4E7D0F1
:10025C00213009F49CD2223009F4A6D2233009F4BF
:0E026C00CBD20F910FBF4F911F910F9118959C
:00000001FF
