:020000020000FC
:040000000C948B00D1
:10002C000C94C6005B4D4F444F20315D20005B4D5E
:10003C004F444F20325D2052554E20005B4D4F44B3
:10004C004F20325D2053544F5050454420005B4D9F
:10005C004F444F20325D205A45524F005B4D4F4468
:10006C004F20335D20416A757374616E646F20613B
:10007C0020756E696461646520646F7320736567B5
:10008C00756E646F73005B4D4F444F20335D2041A0
:10009C006A757374616E646F20612064657A656E35
:1000AC006120646F7320736567756E646F730000F5
:1000BC005B4D4F444F20335D20416A757374616E04
:1000CC00646F206120756E696461646520646F7370
:1000DC00206D696E75746F7300005B4D4F444F203B
:1000EC00335D20416A757374616E646F20612064A6
:1000FC00657A656E6120646F73206D696E75746FBF
:10010C0073003A005C725C6E00000FEF0DBF08E0EC
:10011C000EBF0FE004B90CE30AB900E00093000134
:10012C000093010100930201009303010093040169
:10013C000093050102E000936F0004EF0093890027
:10014C0004E20093880000E0009380000CE0009330
:10015C00810000E00093C50007E60093C40008E0AE
:10016C000093C10006E00093C20021E07894A6D071
:10017C00D7D0AED0D5D0B5D0D3D0BDD0D1D0F7CF8D
:10018C000F931F933F934F935F936F93EF93FF9353
:10019C000FB70F93213029F0223089F02330C1F1B1
:1001AC0054C05ED0E0E3F0E0D7D040910001E0D045
:1001BC00EEE0F1E0D1D040910101DAD043C065D03E
:1001CC0000910401003069F0EAE3F0E0C5D0409101
:1001DC000201CED0EEE0F1E0BFD040910301C8D0D7
:1001EC0031C00091020110910301012B21F4EAE5C9
:1001FC00F0E0B2D027C0E8E4F0E0AED040910201CC
:10020C00B7D0EEE0F1E0A8D040910301B1D01AC014
:10021C0000910501003039F0013049F0023059F0FD
:10022C00033069F00FC0E8E6F0E096D00BC0E2E9CD
:10023C00F0E092D007C0ECEBF0E08ED003C0E6EE1D
:10024C00F0E08AD0E0E1F1E087D00F910FBFFF9191
:10025C00EF916F915F914F913F911F910F91189575
:10026C000F931F931091010113951C3349F40091C6
:10027C00000103950C3309F400E00093000110E039
:10028C00109301011F910F9108950F931F930091EB
:10029C000401003081F01091030113951C3349F4D3
:1002AC000091020103950C3309F400E00093020164
:1002BC0010E0109303011F910F910895009101011B
:1002CC001AE00E949E01012F1FD018E015B9089565
:1002DC00009101011AE00E949E0116D014E015B99C
:1002EC000895009100011AE00E949E01012F0CD08C
:1002FC0012E015B90895009100011AE00E949E01C8
:10030C0003D011E015B908951F938F93802F880F98
:10031C00880F1BB1137C182B1BB98F911F9108955B
:10032C000F9308EC000000000A95E1F70F91089577
:10033C003F933327011718F0011B3395FBCF102F78
:10034C00032F3F9108950F930091C00005FFFCCF40
:10035C003093C6000F9108950F93EF93FF9335914F
:10036C00332311F0F0DFFBCFFF91EF910F91089544
:10037C000F931F934F93042F0CD0502F612F505D70
:10038C00352FE1DF605D362FDEDF4F911F910F912E
:10039C00089511270A3018F00A501395FBCF0F93CC
:0603AC00012F1F910895CE
:00000001FF
