:020000020000FC
:040000000C94180044
:10002C000C9439000FEF0DBF08E00EBF00E00093F9
:10003C00000100930101009302010093030100935E
:10004C00040102E000936F0004EF0093890004E2C6
:10005C000093880000E0009380000CE00093810086
:10006C0022E07894FFCF0F930FB70F93223009F44F
:10007C001CD0233009F004D00F910FBF0F911895AD
:10008C000F931F931091010113951C3319F01093CA
:10009C00010108C00091000103950093000110E0DC
:1000AC00109301010F911F9108950F931F931091BD
:1000BC000401103079F01091030113951C3311F0E9
:1000CC00109303010091020103950093020110E0CB
:0A00DC00109303010F911F91089586
:00000001FF
