:020000020000FC
:040000000C948B00D1
:04000C000C94CE0082
:10002C000C94D7005B4D4F444F20315D20005B4D4D
:10003C004F444F20325D2052554E20005B4D4F44B3
:10004C004F20325D2053544F5050454420005B4D9F
:10005C004F444F20325D205A45524F005B4D4F4468
:10006C004F20335D20416A757374616E646F20613B
:10007C0020756E696461646520646F7320736567B5
:10008C00756E646F73005B4D4F444F20335D2041A0
:10009C006A757374616E646F20612064657A656E35
:1000AC006120646F7320736567756E646F732000D5
:1000BC005B4D4F444F20335D20416A757374616E04
:1000CC00646F206120756E696461646520646F7370
:1000DC00206D696E75746F7320005B4D4F444F201B
:1000EC00335D20416A757374616E646F20612064A6
:1000FC00657A656E6120646F73206D696E75746FBF
:10010C0073003A005C725C6E20000FEF0DBF08E0CC
:10011C000EBF00E104B900E205B901E000936800EC
:10012C0000E200936B000FE104B900E000930001C2
:10013C000093010100930201009303010093040159
:10014C000093050102E000936F0004EF0093890017
:10015C0004E20093880000E0009380000CE0009320
:10016C00810000E00093C50007E60093C40008E09E
:10017C000093C10006E00093C20021E07894AFD058
:10018C00F6D0BBD0F4D0C6D0F2D0D2D0F0D0F7CFCE
:10019C000F9303B105FF02C02C9801C02C9A0F914C
:1001AC0018950F931F933F934F935F936F93EF9318
:1001BC00FF930FB70F93213029F0223089F02330B1
:1001CC00C1F154C05ED0E0E3F0E0E3D04091000117
:1001DC00ECD0EEE0F1E0DDD040910101E6D043C07F
:1001EC0065D000910401003069F0EAE3F0E0D1D071
:1001FC0040910201DAD0EEE0F1E0CBD04091030166
:10020C00D4D031C00091020110910301012B21F4D3
:10021C00EAE5F0E0BED027C0E8E4F0E0BAD04091C7
:10022C000201C3D0EEE0F1E0B4D040910301BDD0A7
:10023C001AC000910501003039F0013049F002304C
:10024C0059F0033069F00FC0E8E6F0E0A2D00BC023
:10025C00E2E9F0E09ED007C0ECEBF0E09AD003C0EE
:10026C00E6EEF0E096D0E0E1F1E093D00F910FBF15
:10027C00FF91EF916F915F914F913F911F910F9172
:10028C0018950F931F931091010113951C3349F48A
:10029C000091000103950C3309F400E00093000178
:1002AC0010E0109301011F910F9108950F931F936C
:1002BC0000910401003081F01091030113951C335F
:1002CC0049F40091020103950C3309F400E000930A
:1002DC00020110E0109303011F910F9108950091FA
:1002EC0001011AE00E94B201012F2FD015B114FDAB
:1002FC001061107F186015B90895009101011AE082
:10030C000E94B20122D015B114FD1061107F14604F
:10031C0015B90895009100011AE00E94B201012F55
:10032C0014D015B114FD1061107F126015B9089529
:10033C00009100011AE00E94B20107D015B114FD22
:10034C001061107F116015B90895000F000F1BB1DB
:10035C00137C102B1BB908953F933327011718F00A
:10036C00011B3395FBCF102F032F3F9108958F93D3
:10037C009F9393E188E80197F1F79F918F910895EE
:10038C000F930091C00005FFFCCF3093C6000F9176
:10039C0008950F93EF93FF933591332311F0F0DF12
:1003AC00FBCFFF91EF910F9108950F931F934F93F4
:1003BC00042F0CD0502F612F505D352FE1DF605D85
:1003CC00362FDEDF4F911F910F91089511270A30C0
:1003DC0018F00A501395FBCF0F93012F1F9108951E
:00000001FF
