:020000020000FC
:040000000C948B00D1
:04000C000C940E0141
:10002C000C9418015B4D4F444F20315D20005B4D0B
:10003C004F444F20325D2052554E20005B4D4F44B3
:10004C004F20325D2053544F5050454420005B4D9F
:10005C004F444F20325D205A45524F005B4D4F4468
:10006C004F20335D20416A757374616E646F20613B
:10007C0020756E696461646520646F7320736567B5
:10008C00756E646F73005B4D4F444F20335D2041A0
:10009C006A757374616E646F20612064657A656E35
:1000AC006120646F7320736567756E646F732000D5
:1000BC005B4D4F444F20335D20416A757374616E04
:1000CC00646F206120756E696461646520646F7370
:1000DC00206D696E75746F7320005B4D4F444F201B
:1000EC00335D20416A757374616E646F20612064A6
:1000FC00657A656E6120646F73206D696E75746FBF
:10010C0073003A005C725C6E20000FEF0DBF08E0CC
:10011C000EBF00E104B900E205B901E000936800EC
:10012C0000E200936B000BB1006C0BB90AB10F73BA
:10013C000AB90FE104B900E000930001009301013A
:10014C000093020100930301009304010093050145
:10015C0002E000936F0004EF0093890004E2009327
:10016C00880000E0009380000CE00093810000E028
:10017C000093C50007E60093C40008E00093C1009B
:10018C0006E00093C20021E0789400910601013052
:10019C0011F406D009D0223009F410D003D1F5CFD8
:1001AC002C9A4ED12C980895022F0395043008F008
:1001BC0001E0202F00E00093060108954F9903C041
:1001CC0008D04F9BFECF4E9903C011D04E9BFECF53
:1001DC0008950091040111E0012700930401E0DF70
:1001EC00EAE3F0E03FD1E0E1F1E03CD10895009189
:1001FC000401003061F400E000930201009303015C
:10020C00CFDFE8E4F0E02ED1E0E1F1E02BD108956E
:10021C000F9303B105FF01C003C001E00093060179
:10022C000F9118950F931F933F934F935F936F9379
:10023C00EF93FF930FB70F9387D09BD0213039F0FA
:10024C00223091F0233009F457C073C072C0E0E340
:10025C00F0E008D14091000111D1EEE0F1E002D1C3
:10026C00409101010BD162C000910401003069F191
:10027C00EAE3F0E0F7D04091020100D1EEE0F1E0CA
:10028C00F1D040910301FAD051C05ED0E0E3F0E030
:10029C00E9D040910001F2D0EEE0F1E0E3D04091E2
:1002AC000101ECD043C065D000910401003069F02D
:1002BC00EAE3F0E0D7D040910201E0D0EEE0F1E0CB
:1002CC00D1D040910301DAD031C0009102011091DC
:1002DC000301012B21F4EAE5F0E0C4D027C0E8E4E7
:1002EC00F0E0C0D040910201C9D0EEE0F1E0BAD00C
:1002FC0040910301C3D01AC000910501003039F0C0
:10030C00013049F0023059F0033069F00FC0E8E6D3
:10031C00F0E0A8D00BC0E2E9F0E0A4D007C0ECEB11
:10032C00F0E0A0D003C0E6EEF0E09CD0E0E1F1E01C
:10033C0099D00F910FBFFF91EF916F915F914F91FA
:10034C003F911F910F9118950F931F9310910101DD
:10035C0013951C3349F40091000103950C3309F4F7
:10036C0000E00093000110E0109301011F910F9128
:10037C0008950F931F9300910401003081F01091A8
:10038C00030113951C3349F40091020103950C33BE
:10039C0009F400E00093020110E0109303011F9197
:1003AC000F910895223079F0009101011AE00E941A
:1003BC001B02712F802F009100011AE00E941B027A
:1003CC00912FA02F0EC0009103011AE00E941B0276
:1003DC00712F802F009102011AE00E941B02912FB5
:1003EC00A02F072F1BD015B1107F186015B928D07E
:1003FC00082F14D015B1107F146015B921D0092F16
:10040C000DD015B1107F126015B91AD00A2F06D075
:10041C0015B1107F116015B913D00895000F000F9E
:10042C001BB1137C102B1BB908953F933327011775
:10043C0018F0011B3395FBCF102F032F3F9108951C
:10044C008F939F9393E188E80197F1F79F918F9198
:10045C0008950F930091C00005FFFCCF3093C600A8
:10046C000F9108950F93EF93FF933591332311F070
:10047C00F0DFFBCFFF91EF910F9108950F931F9336
:10048C004F93042F0CD0502F612F505D352FE1DF8F
:10049C00605D362FDEDF4F911F910F91089511276C
:1004AC000A3018F00A501395FBCF0F93012F1F91B0
:0204BC000895A1
:00000001FF
