:020000020000FC
:040000000C94180044
:10002C000C9443000FEF0DBF08E00EBF0FE004B9B6
:10003C0000E0009300010093010100930201009382
:10004C0003010093040102E000936F0004EF00939E
:10005C00890004E20093880000E0009380000CE02B
:10006C000093810022E0789442D06BD04AD069D0C2
:10007C0051D067D056D065D0F7CF0F930FB70F93F1
:10008C00223009F41CD0233009F004D00F910FBF9B
:10009C000F9118950F931F931091010113951C3319
:1000AC0019F01093010108C0009100010395009311
:1000BC00000110E0109301010F911F9108950F930F
:1000CC001F9310910401103079F0109103011395D6
:1000DC001C3311F01093030100910201039500935E
:1000EC00020110E0109303010F911F9108950091EC
:1000FC0001011AE00E94AC00012F1CD018E015B9C8
:10010C000895009101011AE00E94AC0013D014E094
:10011C0015B90895009100010F700CD012E015B9BB
:10012C000895009100011AE00E94AC0003D011E088
:10013C0015B90895000F000F1BB1137C102B1BB9C0
:10014C00089508EC00000A95E9F708953F933327CA
:10015C00011718F0011B3395FBCF102F032F3F9184
:02016C000895F4
:00000001FF
